:020000040000fa
:080000000002040000000000f2
:020000040000fa
:0400080026030000cb
:020000040000fa
:04000c0004030000e9
:020000040000fa
:0400100016030000d3
:020000040000fa
:040014000c030000d9
:020000040000fa
:040018001e030000c3
:020000040000fa
:04001c0026030000b7
:020000040000fa
:0400200026030000b3
:020000040000fa
:0400240026030000af
:020000040000fa
:0400280026030000ab
:020000040000fa
:04002c0026030000a7
:020000040000fa
:0400300026030000a3
:020000040000fa
:04003400260300009f
:020000040000fa
:04003800260300009b
:020000040000fa
:04003c002603000097
:020000040000fa
:040040002603000093
:020000040000fa
:04004400260300008f
:020000040000fa
:04004800260300008b
:020000040000fa
:04004c002603000087
:020000040000fa
:040050002603000083
:020000040000fa
:04005400260300007f
:020000040000fa
:04005800260300007b
:020000040000fa
:04005c002603000077
:020000040000fa
:040060002603000073
:020000040000fa
:04006400260300006f
:020000040000fa
:04006800260300006b
:020000040000fa
:04006c002603000067
:020000040000fa
:040070002603000063
:020000040000fa
:04007400260300005f
:020000040000fa
:04007800260300005b
:020000040000fa
:04007c002603000057
:020000040000fa
:040080002603000053
:020000040000fa
:04008400260300004f
:020000040000fa
:04008800260300004b
:020000040000fa
:04008c002603000047
:020000040000fa
:040090002603000043
:020000040000fa
:04009400260300003f
:020000040000fa
:04009800260300003b
:020000040000fa
:04009c002603000037
:020000040000fa
:0400a0002603000033
:020000040000fa
:0400a400260300002f
:020000040000fa
:0400a800260300002b
:020000040000fa
:0400ac002603000027
:020000040000fa
:0400b0002603000023
:020000040000fa
:0400b400260300001f
:020000040000fa
:0400b800260300001b
:020000040000fa
:0400bc002603000017
:020000040000fa
:0400c0002603000013
:020000040000fa
:0400c400260300000f
:020000040000fa
:0400c800260300000b
:020000040000fa
:0400cc002603000007
:020000040000fa
:0400d0002603000003
:020000040000fa
:0400d40026030000ff
:020000040000fa
:0400d80026030000fb
:020000040000fa
:0400dc0026030000f7
:020000040000fa
:0400e00026030000f3
:020000040000fa
:0400e40026030000ef
:020000040000fa
:0400e80026030000eb
:020000040000fa
:0400ec0026030000e7
:020000040000fa
:0400f00026030000e3
:020000040000fa
:0400f40026030000df
:020000040000fa
:0400f80026030000db
:020000040000fa
:0400fc0026030000d7
:020000040000fa
:0401000026030000d2
:020000040000fa
:0401040026030000ce
:020000040000fa
:0401080026030000ca
:020000040000fa
:04010c0026030000c6
:020000040000fa
:0401100026030000c2
:020000040000fa
:0401140026030000be
:020000040000fa
:0401180026030000ba
:020000040000fa
:04011c0026030000b6
:020000040000fa
:0401200026030000b2
:020000040000fa
:0401240026030000ae
:020000040000fa
:0401280026030000aa
:020000040000fa
:04012c0026030000a6
:020000040000fa
:0401300026030000a2
:020000040000fa
:04013400260300009e
:020000040000fa
:04013800260300009a
:020000040000fa
:04013c002603000096
:020000040000fa
:040140002603000092
:020000040000fa
:04014400260300008e
:020000040000fa
:04014800260300008a
:020000040000fa
:04014c002603000086
:020000040000fa
:040150002603000082
:020000040000fa
:04015400260300007e
:020000040000fa
:04015800260300007a
:020000040000fa
:04015c002603000076
:020000040000fa
:040160002603000072
:020000040000fa
:04016400260300006e
:020000040000fa
:04016800260300006a
:020000040000fa
:04016c002603000066
:020000040000fa
:040170002603000062
:020000040000fa
:04017400260300005e
:020000040000fa
:04017800260300005a
:020000040000fa
:04017c002603000056
:020000040000fa
:040180002603000052
:020000040000fa
:04018400260300004e
:020000040000fa
:04018800260300004a
:020000040000fa
:04018c002603000046
:020000040000fa
:040190002603000042
:020000040000fa
:04019400260300003e
:020000040000fa
:04019800260300003a
:020000040000fa
:04019c002603000036
:020000040000fa
:0401a0002603000032
:020000040000fa
:0401a400260300002e
:020000040000fa
:0401a800260300002a
:020000040000fa
:0401ac002603000026
:020000040000fa
:0401b0002603000022
:020000040000fa
:0401b400260300001e
:020000040000fa
:0401b800260300001a
:020000040000fa
:0401bc002603000016
:020000040000fa
:0401c0002603000012
:020000040000fa
:0401c400260300000e
:020000040000fa
:0401c800260300000a
:020000040000fa
:0401cc002603000006
:020000040000fa
:0401d0002603000002
:020000040000fa
:0401d40026030000fe
:020000040000fa
:0401d80026030000fa
:020000040000fa
:0401dc0026030000f6
:020000040000fa
:0401e00026030000f2
:020000040000fa
:0401e40026030000ee
:020000040000fa
:0401e80026030000ea
:020000040000fa
:0401ec0026030000e6
:020000040000fa
:0401f00026030000e2
:020000040000fa
:0401f40026030000de
:020000040000fa
:0401f80026030000da
:020000040000fa
:0401fc0026030000d6
:020000040000fa
:0402080026030000c9
:020000040000fa
:04020c0026030000c5
:020000040000fa
:0402100026030000c1
:020000040000fa
:0402140026030000bd
:020000040000fa
:0402180026030000b9
:020000040000fa
:04021c0026030000b5
:020000040000fa
:0402200026030000b1
:020000040000fa
:0402240026030000ad
:020000040000fa
:0402280026030000a9
:020000040000fa
:04022c0026030000a5
:020000040000fa
:0402300026030000a1
:020000040000fa
:04023400260300009d
:020000040000fa
:040238002603000099
:020000040000fa
:04023c002603000095
:020000040000fa
:040240002603000091
:020000040000fa
:04024400260300008d
:020000040000fa
:040248002603000089
:020000040000fa
:04024c002603000085
:020000040000fa
:040250002603000081
:020000040000fa
:04025400260300007d
:020000040000fa
:040258002603000079
:020000040000fa
:04025c002603000075
:020000040000fa
:040260002603000071
:020000040000fa
:04026400260300006d
:020000040000fa
:040268002603000069
:020000040000fa
:04026c002603000065
:020000040000fa
:040270002603000061
:020000040000fa
:04027400260300005d
:020000040000fa
:040278002603000059
:020000040000fa
:04027c002603000055
:020000040000fa
:040280002603000051
:020000040000fa
:04028400260300004d
:020000040000fa
:040288002603000049
:020000040000fa
:04028c002603000045
:020000040000fa
:040290002603000041
:020000040000fa
:04029400260300003d
:020000040000fa
:040298002603000039
:020000040000fa
:04029c002603000035
:020000040000fa
:0402a0002603000031
:020000040000fa
:0402a400260300002d
:020000040000fa
:0402a8002603000029
:020000040000fa
:0402ac002603000025
:020000040000fa
:0402b0002603000021
:020000040000fa
:0402b400260300001d
:020000040000fa
:0402b8002603000019
:020000040000fa
:0402bc002603000015
:020000040000fa
:0402c0002603000011
:020000040000fa
:0402c400260300000d
:020000040000fa
:0402c8002603000009
:020000040000fa
:0402cc002603000005
:020000040000fa
:0402d0002603000001
:020000040000fa
:0402d40026030000fd
:020000040000fa
:0402d80026030000f9
:020000040000fa
:0402dc0026030000f5
:020000040000fa
:0402e00026030000f1
:020000040000fa
:0402e40026030000ed
:020000040000fa
:0402e80026030000e9
:020000040000fa
:0402ec0026030000e5
:020000040000fa
:0402f00026030000e1
:020000040000fa
:0402f40026030000dd
:020000040000fa
:0402f80026030000d9
:020000040000fa
:0402fc0026030000d5
:020000040000fa
:0403000026030000d0
:020000040000fa
:0403040026030000cc
:020000040000fa
:0403080026030000c8
:020000040000fa
:04030c0026030000c4
:020000040000fa
:0403100026030000c0
:020000040000fa
:0403140026030000bc
:020000040000fa
:0403180026030000b8
:020000040000fa
:04031c0026030000b4
:020000040000fa
:0403200026030000b0
:020000040000fa
:0403240026030000ac
:020000040000fa
:0403280026030000a8
:020000040000fa
:04032c0026030000a4
:020000040000fa
:0403300026030000a0
:020000040000fa
:04033400260300009c
:020000040000fa
:040338002603000098
:020000040000fa
:04033c002603000094
:020000040000fa
:040340002603000090
:020000040000fa
:04034400260300008c
:020000040000fa
:040348002603000088
:020000040000fa
:04034c002603000084
:020000040000fa
:040350002603000080
:020000040000fa
:04035400260300007c
:020000040000fa
:040358002603000078
:020000040000fa
:04035c002603000074
:020000040000fa
:040360002603000070
:020000040000fa
:04036400260300006c
:020000040000fa
:040368002603000068
:020000040000fa
:04036c002603000064
:020000040000fa
:040370002603000060
:020000040000fa
:04037400260300005c
:020000040000fa
:040378002603000058
:020000040000fa
:04037c002603000054
:020000040000fa
:040380002603000050
:020000040000fa
:04038400260300004c
:020000040000fa
:040388002603000048
:020000040000fa
:04038c002603000044
:020000040000fa
:040390002603000040
:020000040000fa
:04039400260300003c
:020000040000fa
:040398002603000038
:020000040000fa
:04039c002603000034
:020000040000fa
:0403a0002603000030
:020000040000fa
:0403a400260300002c
:020000040000fa
:0403a8002603000028
:020000040000fa
:0403ac002603000024
:020000040000fa
:0403b0002603000020
:020000040000fa
:0403b400260300001c
:020000040000fa
:0403b8002603000018
:020000040000fa
:0403bc002603000014
:020000040000fa
:0403c0002603000010
:020000040000fa
:0403c400260300000c
:020000040000fa
:0403c8002603000008
:020000040000fa
:0403cc002603000004
:020000040000fa
:0403d0002603000000
:020000040000fa
:0403d40026030000fc
:020000040000fa
:0403d80026030000f8
:020000040000fa
:0403dc0026030000f4
:020000040000fa
:0403e00026030000f0
:020000040000fa
:0403e40026030000ec
:020000040000fa
:0403e80026030000e8
:020000040000fa
:0403ec0026030000e4
:020000040000fa
:0403f00026030000e0
:020000040000fa
:0403f40026030000dc
:020000040000fa
:0403f80026030000d8
:020000040000fa
:0403fc0026030000d4
:020000040000fa
:10040000af8220000e7f22000e0188000000000055
:10041000000020000000e000020032000001200087
:1004200020028800140007008a0007000000e00096
:1004300003003a00c017210001002000020037002d
:100440000000200001002000810f70000100320038
:1004500014000700000020000000e000020032004d
:100460000000020000000000701002000000000008
:100470000040da000000fe004440a90020002000f7
:100480000000e0000300320010002000900188000e
:100490004440a800000006008a1f78008b1f7800e7
:1004a00000000600a1028800800478000000eb0034
:1004b0001f003700e284440054a0b4009905ba003c
:1004c000e284440054a0b4009906ba00e2844400d7
:1004d00054a0b4000006eb00476fde00fd07b20039
:1004e000ae018800636ce10003003a00eaff0700f8
:1004f0000000eb000e003700606ce10008003a00dd
:10050000004deb000a05e800020039003420ec0041
:100510000af0a0008b05e900f9ff3e000400370057
:100520006168e100010032000086eb000b0007006b
:1005300019c7ba001905ba000e04e00003003a001a
:100540000a00e000dbff3a0000000600fe07b200f0
:10055000ae0288008a047800f5ff37000cd0a300b3
:10056000e20f4d001c00390089027800354dba00b9
:100570000a05e800020039003420ec000af0a0006f
:100580008b05e9000f003200254dba000a05e8008e
:10059000020039003420ec000af0a0008b05e900cd
:1005a000080032000c00e0000600320015cdba0051
:1005b0000a05e800020039003420ec000af0a0002f
:1005c0008b05e9008984e80054a0b4000b00e0002a
:1005d000e2ff3a00000006009902ba00055d7800cb
:1005e0008b05e900f7ff3200c82ade00055d7800c0
:1005f0008b05e900f3ff32000c00e000f1ff320050
:1006000019ddba00eeff37003600f8008020a9009f
:100610000000eb00560707003600f80058070700f7
:100620008040a90010002000510707003600f800a4
:100630008060a900200020004d0707003600f80068
:100640008080a90030002000490707000040da0040
:100650000000fe000000050003f0a200889fbe001d
:100660008a9fbe008c1f7800fc0007000301330046
:100670006450e1004f0032006420e100520032007b
:1006800003826c0007003b000905d0000306d00080
:10069000820f54000c065d00020039000200320097
:1006a00089017800030678008582550004003d002a
:1006b0000003fd008103fd008502ea008b854200f6
:1006c000840f720002003b0060001000e080180000
:1006d0006011b8000005eb007a28e1000a0039003b
:1006e00006007800c75ddd00f707b200878075005f
:1006f0002d003700828171000a01780061056000d9
:100700008180d1000080d3008502e900f9ff3b0021
:10071000060440008784480002003b006004140087
:10072000e0841c000988a300070032008a81710060
:1007300082817100610164008904d1000884d300c2
:100740008b05e800170037000978a30013003a0072
:100750000b00e000130034008b05e900080444009e
:1007600089844c000a4474000978a3000d003a0003
:100770000b00e000070034008b05e900080444008a
:1007800089844c0001003a000b0020000978a30086
:10079000f7ff32000001eb00020037008281710098
:1007a0000a017800720007000cf0a70001f0a00019
:1007b000bb0037006420e10002003a00838f6c0028
:1007c000bb0033000801be000200be00b4003700c9
:1007d000889fbe008a9fbe008c1f78009f00070084
:1007e000a600330003866c006450e1002e00320046
:1007f0006420e100330032006150e1002f0032003c
:100800006120e1003100320085855500eb07b00022
:1008100009002000080420000500370008044400f7
:1008200089844c000a0031000603430087834b0093
:100830000001530081815b00f8ff33000203be001a
:100840000800a0000804440089844c00f6ff390029
:10085000c639dd008301730001003200130020005f
:100860008904d1000884d3000998a3000500320050
:100870000800a7000300a0008904d1000884d30069
:100880008b05e8008904d1000884d3000001eb0047
:100890000281d2003600070001f0a1000cf0a70091
:1008a00001f0a0007e0037006420e10080003200eb
:1008b0000801be000200be00f7ff37006120e10022
:1008c0007b0032006000b800f3ff3700000020001a
:1008d00001f82700f0ff3700f4ff2f00ab003700ce
:1008e0000001be00480007000470a70003f0a1004b
:1008f0006509b100160032000d0035006828e100de
:1009000006003500f0ff2f00f1ff27000300e00094
:1009100013003b000100280000000500000040001b
:10092000818048008502e900fcff3a00080037009a
:10093000f88f420002003c008000eb000000050040
:100940008100d1000080d3008502e800fcff3a005e
:100950000300e00002003b0060001000e08018008f
:10096000000006004f89de0082017800a2003700f7
:1009700081002000618055000b003d000b0020002d
:1009800061fe2f000100e1001d0034008281710032
:10099000610164008904d1000884d3000000e800ec
:1009a000faff3a007100200061006400030070004b
:1009b000020060000900320061044400e0844c0041
:1009c0000988a500050032008b05e8006808e100f1
:1009d00002003a008904d1000884d300f20f2000fd
:1009e0000258e10005003d00c75ddd00f907b200d7
:1009f0008980750008007800000006000bf82700c9
:100a00008b00780000000500c70ade00f107b20085
:100a1000f50fb20008003200e1cf420002003200c0
:100a20000170a00024000500810f70000100320059
:100a30000408050044000500810f700002003a0020
:100a4000140005008502e9000000400081c0480054
:100a5000fcff3b000170a000240005000004be0064
:100a6000e9ff07000003be000405be000200be004f
:100a7000e5ff0700844f7500000006000200be007d
:100a80006450e100050036006420e10002003600f9
:100a90000968a30001003a000800be000160a00040
:100aa0004f0678004f05be004f04be000000060050
:100ab000f0ff2f00f1ff2700f9ff3700889fbe00ed
:100ac0008a9fbe008c1f7800e4ff0700ebff330015
:100ad00003866c006450e100240032006420e100d1
:100ae000270032006150e100220032006120e10065
:100af000210032008b854200eb07b1000134b800c1
:100b0000003ab8000804420089844a00013ab8005b
:100b10000030b8008880400009014a00040033001a
:100b20000000400081804800020149008b05e90077
:100b3000c909dd00830170000100320013002000ac
:100b4000c814de004814dd004709de001200b200c0
:100b5000c808de000884700085ff070001f0a100ce
:100b60000cf0a70001f0a000cdff37006120e100ec
:100b7000cfff32000801be000200be00f7ff3700c1
:100b80006150e100fcff3a00c9ff3700889fbe00ba
:100b90008a9fbe00841f7800b0ff07004f007800d6
:100ba00011003300f0ff2f00838f6c0006003b0024
:100bb000040565000a00a7000800370009f0a60038
:100bc0001000200008003700820f5400838f5c0063
:100bd000030039001000200001003e00000020004a
:100be00009f0a7000000ea004f05be004f04be0058
:100bf0000000e00000000600881f78000304780071
:100c00000300e00007003d0060001000e0801800d5
:100c100060011900e081190002003b0001f02d0085
:100c2000030037000400070008f0a70001f0a0004f
:100c30004f04780000000600889fbe008a9fbe0017
:100c400000827000040271000482710026003200ec
:100c50000004be000200be006011b8006b09200055
:100c6000950220000182cf000a0039000541b10041
:100c70000082cf00070039000541b1000982cf0092
:100c8000040039000541b1000882cf00010039009d
:100c90000541b10005425200120032000a003b003b
:100ca00082817100610164008100d1000080d30065
:100cb0008984d3000884d3008b05e8000442e8004f
:100cc000f7ff3a00070037000804440089844c000d
:100cd00000004800818048008b05e9000442e900db
:100ce000f9ff3a0022ff07004f05be004f04be0087
:040cf00000000600fa
:020000040000fa
:100cf4000400fa00008fbe000200200003f023006d
:100d04001e00be0054fe0700f4fe07000000780039
:100d14000080fa00000006001a00fa00881f78001c
:100d2400100f9800210f9800320f9800430f98007d
:100d34000000eb00100798003e099000ce099000d7
:100d44000000200001f82300a0fe070030079800ef
:100d54004107980020408000314080000001be001f
:100d64003e009000ce00900098fe070018c0b3002b
:100d74000200200003782400d6fe07000000e000f3
:100d840001003c000044eb000804e00003003200d2
:100d94000000eb0050079800080037002040800056
:100da400314080000001be003e009000ce00900063
:100db40086fe0700ceff0700500798002040800001
:100dc4003140800002002000031024003aff070095
:100dd4000001be003e009000ce0090007bfe0700a4
:100de40018c0b3000200200003782400b9fe0700f5
:100df4000000e00001003c000044eb000804e000b7
:100e0400030032000000eb00600798000b0037007d
:100e140020408000314080000200200003102400a4
:100e240025ff07000001be003e009000ce009000a8
:100e340066fe0700aeff07006007980020408000b0
:100e44003140800002002000032824001aff07001c
:100e54000001be003e009000ce0090005bfe070043
:100e640018c0b300020020000378240099fe070094
:100e74000000e00001003c000044eb000804e00036
:100e8400030032000000eb00700798000b003700ed
:100e9400204080003140800002002000032824000c
:100ea40005ff07000001be003e009000ce00900048
:100eb40046fe07008eff0700700798002040800060
:100ec400314080000200200003382400fafe0700ad
:100ed4000001be003e009000ce0090003bfe0700e3
:100ee40018c0b300020020000378240079fe070034
:100ef4000000e00001003c000044eb000804e000b6
:100f0400030032000000eb00000f98000b003700d4
:100f1400204080003140800002002000033824007b
:100f2400e5fe07000001be003e009000ce009000e8
:100f340026fe07006eff0700000f98000040eb003c
:100f4400004f7800110037001e80fb0000004000b5
:100f5400ea00470000804000900078001e009000e6
:100f6400808f5000080034001e80fb000000400009
:100f7400ea004700008040009000780011079800c4
:100f84009e407800414798001e4fe8001e407800bc
:100f9400e34f5000ecff36001e0890009e009000c6
:100fa400010878002e089000ce4090000148780097
:100fb4004f0478000080fa00000006001000fa00d8
:100fc400889fbe00008fbe00220798003307980058
:100fd400440798005507980066079800770798001b
:100fe4002e019000be0190001e00be0099fd070076
:100ff4000004be00fe0090006e00900000805000cf
:10100400cf80de0056fe07000001be000800be00cf
:10101400a9fe07000004be002e019000be0190004e
:101024004e009000de0090008afd07000001be0023
:101034000800be00e5fd07000004be006e0090003d
:10104400cf80de0046fe07000001be000800be009f
:1010540081fd070026ff07004f04be000080fa0050
:10106400000006000e00fa0040479800514798001f
:1010740032079800430798005407980065079800c2
:1010840000408000114080000001be0000002000ec
:1010940001f82300cdfd070020408800314088007e
:1010a4004e4090000080fb00e30f5000a00132008e
:1010b400e30f500005003c00e10f5000080032002f
:1010c400e20f5000d200320002043700e40f500057
:1010d40064023200e50f50002e033200fd03370096
:1010e4000e80e8003e019000ce0190008000780060
:1010f4000e00780008ff070005e1a9000021ef00b9
:1011040000002200200888002e4090000080fb0090
:10111400e10f50000f003200e10f500003003c00cb
:101124000000e000060032001b003700e20f500010
:101134000e003200e30f5000120032001600370098
:1011440021088000f0fc2f00008060002008880047
:101154001100370021088000f0fc2f00008060009f
:101164000040a000200888000b0037002108800000
:10117400f0fc2f00008060000050a00020088800d0
:1011840005003700210880000003200001007000e2
:1011940020088800000000001e0078001008880065
:1011a4005e4090000080fb00e20f50002d003200f2
:1011b400e20f500003003c00e10f50000600320033
:1011c40091003700e30f500049003200e40f500053
:1011d4006a0032008c0037001e007800800378001b
:1011e4000003eb0004002000852c24006011b800eb
:1011f4005e009000ee00900070ff0700b00c8800c5
:101204001e007800800378000003eb000400200037
:10121400852c24006011b8005e009000ee00900060
:1012240066ff0700a00c8800810c800080ff2f005f
:1012340000806000800c8800810c800080ff2f00fb
:10124400008060006000b300800c8800810c800086
:10125400f03f2e000080600000c0a000800c8800d9
:10126400690037001e007800800378000003eb005b
:1012740004002000852c24006011b8005e0090005a
:10128400ee0090004dff0700000d88001e0078005e
:10129400800378000003eb0004002000852c240068
:1012a4006011b8005e009000ee00900043ff07005c
:1012b400f00c8800d10c800080ff2f0000806000bb
:1012c400d00c8800d10c800080ff2f0000806000cb
:1012d4006000b300d00c8800d10c8000f03f2e00d9
:1012e4000080600000c0a000d00c880046003700d9
:1012f4001e007800800378000003eb000400200047
:10130400852c24006011b8005e009000ee0090006f
:101314002aff0700500d88001e0078008003780023
:101324000003eb0004002000852c24006011b800a9
:101334005e009000ee00900020ff0700400d880042
:10134400210d800080ff2f0000806000200d8800a8
:10135400210d800080ff2f00008060006000b3003a
:10136400200d8800210d8000f03f2e0000806000d9
:1013740000c0a000200d8800230037001e00780064
:10138400800378000003eb0004002000852c240077
:101394006011b8005e009000ee00900007ff0700a7
:1013a400a00d88001e007800800378000003eb0085
:1013b40004002000852c24006011b8005e00900019
:1013c400ee009000fdfe0700900d8800710d800076
:1013d40080ff2f0000806000700d8800710d800078
:1013e40080ff2f00008060006000b300700d880053
:1013f400710d8000f03f2e000080600000c0a0004e
:10140400700d88000000000005e1a80031033700da
:101414000e80e8003e019000ce019000800078002c
:101424000e0078003cfe070011e1a9000621ef0040
:1014340000002200800888002e4090000080fb00fd
:10144400e10f50000f003200e10f500003003c0098
:101454000000e000060032001b003700e20f5000dd
:101464000e003200e30f5000120032001600370065
:1014740081088000f0fc2f00008060008008880054
:101484001100370081088000f0fc2f00008060000c
:101494000040a000800888000b003700810880000d
:1014a400f0fc2f00008060000050a000800888003d
:1014b400050037008108800000032000010070004f
:1014c40080088800000000001e0078006008880082
:1014d4005e4090000080fb00e20f50002c003200c0
:1014e400e20f500003003c00e10f50000600320000
:1014f4008d003700e30f500047003200e40f500026
:1015040067003200880037001e00780080037800ee
:101514000003eb0004002000852c24006011b800b7
:101524005e009000ee009000a4fe0700b00c88005e
:101534001e007800800378000003eb000400200004
:10154400852c24006011b8005e009000ee0090002d
:101554009afe0700a00c8800810c800080ff2f00f9
:1015640000806000800c8800810c800080ff2f00c8
:10157400008060006000b300800c8800810c800053
:10158400f03f2e0000806000800c88006600370069
:101594001e007800800378000003eb0004002000a4
:1015a400852c24006011b8005e009000ee009000cd
:1015b40082fe0700000d88001e007800800378007a
:1015c4000003eb0004002000852c24006011b80007
:1015d4005e009000ee00900078fe0700f00c88009a
:1015e400d10c800080ff2f0000806000d00c8800a8
:1015f400d10c800080ff2f00008060006000b300e9
:10160400d00c8800d10c8000f03f2e0000806000d8
:10161400d00c8800440037001e0078008003780056
:101624000003eb0004002000852c24006011b800a6
:101634005e009000ee00900060fe0700500d8800f0
:101644001e007800800378000003eb0004002000f3
:10165400852c24006011b8005e009000ee0090001c
:1016640056fe0700400d8800210d800080ff2f00ea
:1016740000806000200d8800210d800080ff2f0075
:10168400008060006000b300200d8800210d800000
:10169400f03f2e0000806000200d880022003700fb
:1016a4001e007800800378000003eb000400200093
:1016b400852c24006011b8005e009000ee009000bc
:1016c4003efe0700a00d88001e007800800378000d
:1016d4000003eb0004002000852c24006011b800f6
:1016e4005e009000ee00900034fe0700900d88002c
:1016f400710d800080ff2f0000806000700d880055
:10170400710d800080ff2f00008060006000b30036
:10171400700d8800710d8000f03f2e000080600085
:10172400700d88000000000011e1a8006902370074
:101734000e80e8003e019000ce0190008000780009
:101744000e00780074fd070013e1a9000a21ef00e0
:1017540000002200900888002e4090000080fb00ca
:10176400e10f50000f003200e10f500003003c0075
:101774000000e000060032001b003700e20f5000ba
:101784000e003200e30f5000120032001600370042
:1017940091088000f0fc2f00008060009008880011
:1017a4001100370091088000f0fc2f0000806000d9
:1017b4000040a000900888000b00370091088000ca
:1017c400f0fc2f00008060000050a000900888000a
:1017d400050037009108800000032000010070001c
:1017e40090088800000000001e007800700888003f
:1017f4005e4090000080fb00e20f50002e0032009b
:10180400e20f500003003c00e10f500006003200dc
:1018140092003700e30f50004a003200e40f5000fa
:101824006b0032008d0037001e00780080037800c2
:101834000003eb0004002000852c24006011b80094
:101844005e009000ee009000dcfd0700b00c880004
:101854001e007800800378000003eb0004002000e1
:10186400852c24006011b8005e009000ee0090000a
:10187400d2fd0700a00c8800810c800080ff2f009f
:1018840000806000800c8800810c800080ff2f00a5
:10189400008060006000b300800c8800810c800030
:1018a400f03f2e000080600000a0a000800c8800a3
:1018b400ec22a800690037001e007800800378003d
:1018c4000003eb0004002000852c24006011b80004
:1018d4005e009000ee009000b8fd0700000d880047
:1018e4001e007800800378000003eb000400200051
:1018f400852c24006011b8005e009000ee0090007a
:10190400aefd0700f00c8800d10c800080ff2f0092
:1019140000806000d00c8800d10c800080ff2f0074
:10192400008060006000b300d00c8800d10c8000ff
:10193400f03f2e000080600000a0a000d00c8800c2
:10194400460037001e007800800378000003eb0097
:1019540004002000852c24006011b8005e00900073
:10196400ee00900095fd0700500d88001e007800e1
:10197400800378000003eb0004002000852c240081
:101984006011b8005e009000ee0090008bfd07002f
:10199400400d8800210d800080ff2f000080600032
:1019a400200d8800210d800080ff2f000080600042
:1019b4006000b300200d8800210d8000f03f2e0050
:1019c4000080600000a0a000200d880023003700e4
:1019d4001e007800800378000003eb000400200060
:1019e400852c24006011b8005e009000ee00900089
:1019f40072fd0700a00d88001e00780080037800a7
:101a04000003eb0004002000852c24006011b800c2
:101a14005e009000ee00900068fd0700900d8800c5
:101a2400710d800080ff2f0000806000700d880021
:101a3400710d800080ff2f00008060006000b30003
:101a4400700d8800710d8000f03f2e000080600052
:101a540000a0a000700d88000000000013e1a800a1
:101a64009c0137000e80e8003e019000ce019000fa
:101a7400800078000e007800a7fc07001fe1a90091
:101a84001421ef0000002200f00888002e4090008e
:101a94000080fb00e10f50000f003200e10f500006
:101aa40003003c000000e000060032001b00370089
:101ab400e20f50000e003200e30f5000120032001b
:101ac40016003700f1088000f0fc2f000080600051
:101ad400f008880011003700f1088000f0fc2f00a6
:101ae400008060000040a000f00888000b00370070
:101af400f1088000f0fc2f00008060000050a0007e
:101b0400f008880005003700f10880000003200079
:101b140001007000f0088800000000001e0078003a
:101b2400d00888005e4090000080fb00e20f500067
:101b34002d003200e20f500003003c00e10f500082
:101b44000600320091003700e30f500049003200d4
:101b5400e40f50006a0032008c0037001e00780049
:101b6400800378000003eb0004002000852c24008f
:101b74006011b8005e009000ee0090000ffd0700b9
:101b8400b00c88001e007800800378000003eb008e
:101b940004002000852c24006011b8005e00900031
:101ba400ee00900005fd0700a00c8800810c800069
:101bb40080ff2f0000806000800c8800810c800072
:101bc40080ff2f00008060006000b300800c88005c
:101bd400810c8000f03f2e000080600000b0a00067
:101be400800c8800690037001e00780080037800ac
:101bf4000003eb0004002000852c24006011b800d1
:101c04005e009000ee009000ecfc0700000d8800e0
:101c14001e007800800378000003eb00040020001d
:101c2400852c24006011b8005e009000ee00900046
:101c3400e2fc0700f00c8800d10c800080ff2f002c
:101c440000806000d00c8800d10c800080ff2f0041
:101c5400008060006000b300d00c8800d10c8000cc
:101c6400f03f2e000080600000b0a000d00c88007f
:101c7400460037001e007800800378000003eb0064
:101c840004002000852c24006011b8005e00900040
:101c9400ee009000c9fc0700500d88001e0078007b
:101ca400800378000003eb0004002000852c24004e
:101cb4006011b8005e009000ee009000bffc0700c9
:101cc400400d8800210d800080ff2f0000806000ff
:101cd400200d8800210d800080ff2f00008060000f
:101ce4006000b300200d8800210d8000f03f2e001d
:101cf4000080600000b0a000200d880023003700a1
:101d04001e007800800378000003eb00040020002c
:101d1400852c24006011b8005e009000ee00900055
:101d2400a6fc0700a00d88001e0078008003780040
:101d34000003eb0004002000852c24006011b8008f
:101d44005e009000ee0090009cfc0700900d88005f
:101d5400710d800080ff2f0000806000700d8800ee
:101d6400710d800080ff2f00008060006000b300d0
:101d7400700d8800710d8000f03f2e00008060001f
:101d840000b0a000700d8800000000001fe1a80052
:101d9400d00037000e80e8003e019000ce01900094
:101da400800078000e007800dbfb070021e1a90029
:101db4001821ef0000002200000988002e40900046
:101dc4000080fb00e10f50000f003200e10f5000d3
:101dd40003003c000000e000060032001b00370056
:101de400e20f50000e003200e30f500012003200e8
:101df4001600370001098000f0fc2f00008060000d
:101e0400000988001100370001098000f0fc2f0050
:101e1400008060000040a000000988000b0037002b
:101e240001098000f0fc2f00008060000050a00039
:101e34000009880005003700010980000003200024
:101e44000100700000098800000000001e007800f6
:101e5400e00888005e4090000080fb00e20f500024
:101e64002e003200e20f500003003c00e10f50004e
:101e74000600320095003700e30f50004b0032009b
:101e8400e40f50006d003200900037001e0078000f
:101e9400800378000003eb0004002000852c24005c
:101ea4006011b8005e009000ee00900043fc070053
:101eb400b00c88001e007800800378000003eb005b
:101ec40004002000852c24006011b8005e009000fe
:101ed400ee00900039fc0700a00c8800810c800003
:101ee40080ff2f0000806000800c8800810c80003f
:101ef40080ff2f00008060006000b300800c880029
:101f0400810c8000f03f2e008080600000c0200023
:101f140001007000800c88006c0037001e007800ff
:101f2400800378000003eb0004002000852c2400cb
:101f34006011b8005e009000ee0090001ffc0700e6
:101f4400000d88001e007800800378000003eb0079
:101f540004002000852c24006011b8005e0090006d
:101f6400ee00900015fc0700f00c8800d10c8000f6
:101f740080ff2f0000806000d00c8800d10c80000e
:101f840080ff2f00008060006000b300d00c880048
:101f9400d10c8000f03f2e008080600000c0200043
:101fa40001007000d00c8800480037001e00780043
:101fb400800378000003eb0004002000852c24003b
:101fc4006011b8005e009000ee009000fbfb07007b
:101fd400500d88001e007800800378000003eb0099
:101fe40004002000852c24006011b8005e009000dd
:101ff400ee009000f1fb0700400d8800210d8000e9
:1020040080ff2f0000806000200d8800210d8000db
:1020140080ff2f00008060006000b300200d880066
:10202400210d8000f03f2e008080600000c0200061
:1020340001007000200d8800240037001e00780085
:10204400800378000003eb0004002000852c2400aa
:102054006011b8005e009000ee009000d7fb07000e
:10206400a00d88001e007800800378000003eb00b8
:1020740004002000852c24006011b8005e0090004c
:10208400ee009000cdfb0700900d8800710d8000dc
:1020940080ff2f0000806000700d8800710d8000ab
:1020a40080ff2f00008060006000b300700d880086
:1020b400710d8000f03f2e008080600000c0200081
:1020c40001007000700d88000000000021e1a800ec
:1020d400000000000080fa00000006000000fa0082
:1020e40069000700a1368000f00f2c00808060009a
:1020f4000020210001007000a0368800d136800045
:1021040000fc2f00008060003001b300d03688004e
:10211400d1368000f00f2c00808060000050210038
:1021240001007000d036880091368000f00f2c003a
:10213400808060000040210001007000903688001b
:1021440004002000652c240002002c0063492400b4
:1021540011c0b30020c0b300c2fb0700040020007c
:10216400c520240002002c006349240021c0b300d0
:1021740020c0b300bbfb0700040020008527240017
:1021840002002c006349240031c0b30020c0b30016
:10219400b4fb070004002000052b240002002c00df
:1021a4006349240041c0b30020c0b300adfb070065
:1021b40005e1a90013e1a9001fe1a90021e1a9009b
:1021c400ec02a800006829008109200059000700da
:1021d400ec02a900006829008109200055000700cd
:1021e400f7ff37000000fa00cc22ef00d422ef0002
:1021f400dc22ef00e422ef00ec22ef00f422ef00f7
:10220400c822ef00d022ef00d822ef00e022ef0036
:10221400e822ef00f022ef005620ef005820ef00f4
:102224005a20ef005c20ef005e20ef006020ef00fa
:102234006e20ef007020ef007220ef007420ef009a
:102244007620ef007820ef00ce22ef00d622ef00b8
:10225400de22ef00e622ef00ee22ef00f622ef008e
:10226400c0ff2f001027880000cc200030278800f2
:10227400000f200040278800003c200060278800d1
:102284000080fa00000006000000fa00d5ff0700f5
:1022940041000700020007000080fa000000060069
:1022a4000000fa0000102300203a88004827ef00bd
:1022b4004e27ef002200200080072000a109200003
:1022c400337420008049780081497800824978007d
:1022d4000001eb006004200071052000237420003d
:1022e4008049780081497800824978000080fa00aa
:0422f40000000600e0
:020000040000fa
:1022f8000a08000020000000800000000808000014
:102308000200000082000000ffff0000000800003b
:102318000400000082000000809618004b000000b6
:102328000408000004000000800000000000000015
:020000040000fa
:10233800f03fb1000180b10006003500ee0309004e
:1023480000000000403fb1000180b100fbff3d00ec
:102358001000b000203fb0000200350000800900e6
:08236800000000000000060067
:020000040000fa
:10237000000f78009e00780041408800ffff370082
:102380000000fa00a0802000800778002082200052
:10239000000188000080fa00000006000000fa003a
:0823a0000080fa0000000600b5
:020000040000fa
:020000040001f9
:0457f000ffff0000b7
:020000040000fa
:020000040001f9
:0457f400fffe0000b4
:020000040000fa
:020000040001f9
:0457f8009ee200002d
:020000040000fa
:020000040001f9
:0457fc009f3f0000cb
:00000001FF
