:020000040000fa
:080000000002040000000000f2
:020000040000fa
:04000800560300009b
:020000040000fa
:04000c005603000097
:020000040000fa
:040010005603000093
:020000040000fa
:04001400560300008f
:020000040000fa
:04001800560300008b
:020000040000fa
:04001c005603000087
:020000040000fa
:040020005603000083
:020000040000fa
:04002400560300007f
:020000040000fa
:04002800560300007b
:020000040000fa
:04002c005603000077
:020000040000fa
:040030005603000073
:020000040000fa
:04003400560300006f
:020000040000fa
:04003800560300006b
:020000040000fa
:04003c005603000067
:020000040000fa
:040040005603000063
:020000040000fa
:04004400560300005f
:020000040000fa
:04004800560300005b
:020000040000fa
:04004c005603000057
:020000040000fa
:040050005603000053
:020000040000fa
:04005400560300004f
:020000040000fa
:04005800560300004b
:020000040000fa
:04005c005603000047
:020000040000fa
:040060005603000043
:020000040000fa
:04006400560300003f
:020000040000fa
:04006800560300003b
:020000040000fa
:04006c005603000037
:020000040000fa
:040070005603000033
:020000040000fa
:04007400560300002f
:020000040000fa
:04007800560300002b
:020000040000fa
:04007c005603000027
:020000040000fa
:040080005603000023
:020000040000fa
:04008400560300001f
:020000040000fa
:04008800560300001b
:020000040000fa
:04008c005603000017
:020000040000fa
:040090005603000013
:020000040000fa
:04009400560300000f
:020000040000fa
:04009800560300000b
:020000040000fa
:04009c005603000007
:020000040000fa
:0400a0005603000003
:020000040000fa
:0400a40056030000ff
:020000040000fa
:0400a80056030000fb
:020000040000fa
:0400ac0056030000f7
:020000040000fa
:0400b00056030000f3
:020000040000fa
:0400b40056030000ef
:020000040000fa
:0400b80056030000eb
:020000040000fa
:0400bc0056030000e7
:020000040000fa
:0400c00056030000e3
:020000040000fa
:0400c40056030000df
:020000040000fa
:0400c80056030000db
:020000040000fa
:0400cc0056030000d7
:020000040000fa
:0400d00056030000d3
:020000040000fa
:0400d40056030000cf
:020000040000fa
:0400d80056030000cb
:020000040000fa
:0400dc0056030000c7
:020000040000fa
:0400e00056030000c3
:020000040000fa
:0400e40056030000bf
:020000040000fa
:0400e80056030000bb
:020000040000fa
:0400ec0056030000b7
:020000040000fa
:0400f00056030000b3
:020000040000fa
:0400f40056030000af
:020000040000fa
:0400f80056030000ab
:020000040000fa
:0400fc0056030000a7
:020000040000fa
:0401000056030000a2
:020000040000fa
:04010400560300009e
:020000040000fa
:04010800560300009a
:020000040000fa
:04010c005603000096
:020000040000fa
:040110005603000092
:020000040000fa
:04011400560300008e
:020000040000fa
:04011800560300008a
:020000040000fa
:04011c005603000086
:020000040000fa
:040120005603000082
:020000040000fa
:04012400560300007e
:020000040000fa
:04012800560300007a
:020000040000fa
:04012c005603000076
:020000040000fa
:040130005603000072
:020000040000fa
:04013400560300006e
:020000040000fa
:04013800560300006a
:020000040000fa
:04013c005603000066
:020000040000fa
:040140005603000062
:020000040000fa
:04014400560300005e
:020000040000fa
:04014800560300005a
:020000040000fa
:04014c005603000056
:020000040000fa
:040150005603000052
:020000040000fa
:04015400560300004e
:020000040000fa
:04015800560300004a
:020000040000fa
:04015c005603000046
:020000040000fa
:040160005603000042
:020000040000fa
:04016400560300003e
:020000040000fa
:04016800560300003a
:020000040000fa
:04016c005603000036
:020000040000fa
:040170005603000032
:020000040000fa
:04017400560300002e
:020000040000fa
:04017800560300002a
:020000040000fa
:04017c005603000026
:020000040000fa
:040180005603000022
:020000040000fa
:04018400560300001e
:020000040000fa
:04018800040300006c
:020000040000fa
:04018c005603000016
:020000040000fa
:040190005603000012
:020000040000fa
:04019400560300000e
:020000040000fa
:04019800560300000a
:020000040000fa
:04019c005603000006
:020000040000fa
:0401a0005603000002
:020000040000fa
:0401a40056030000fe
:020000040000fa
:0401a80056030000fa
:020000040000fa
:0401ac0056030000f6
:020000040000fa
:0401b00056030000f2
:020000040000fa
:0401b40056030000ee
:020000040000fa
:0401b80056030000ea
:020000040000fa
:0401bc0056030000e6
:020000040000fa
:0401c00056030000e2
:020000040000fa
:0401c40056030000de
:020000040000fa
:0401c80056030000da
:020000040000fa
:0401cc0056030000d6
:020000040000fa
:0401d00056030000d2
:020000040000fa
:0401d40056030000ce
:020000040000fa
:0401d80056030000ca
:020000040000fa
:0401dc0056030000c6
:020000040000fa
:0401e00056030000c2
:020000040000fa
:0401e40056030000be
:020000040000fa
:0401e80056030000ba
:020000040000fa
:0401ec0056030000b6
:020000040000fa
:0401f00056030000b2
:020000040000fa
:0401f40056030000ae
:020000040000fa
:0401f80056030000aa
:020000040000fa
:0401fc0056030000a6
:020000040000fa
:040208005603000099
:020000040000fa
:04020c005603000095
:020000040000fa
:040210005603000091
:020000040000fa
:04021400560300008d
:020000040000fa
:040218005603000089
:020000040000fa
:04021c005603000085
:020000040000fa
:040220005603000081
:020000040000fa
:04022400560300007d
:020000040000fa
:040228005603000079
:020000040000fa
:04022c005603000075
:020000040000fa
:040230005603000071
:020000040000fa
:04023400560300006d
:020000040000fa
:040238005603000069
:020000040000fa
:04023c005603000065
:020000040000fa
:040240005603000061
:020000040000fa
:04024400560300005d
:020000040000fa
:040248005603000059
:020000040000fa
:04024c005603000055
:020000040000fa
:040250005603000051
:020000040000fa
:04025400560300004d
:020000040000fa
:040258005603000049
:020000040000fa
:04025c005603000045
:020000040000fa
:040260005603000041
:020000040000fa
:04026400560300003d
:020000040000fa
:040268005603000039
:020000040000fa
:04026c005603000035
:020000040000fa
:040270005603000031
:020000040000fa
:04027400560300002d
:020000040000fa
:040278005603000029
:020000040000fa
:04027c005603000025
:020000040000fa
:040280005603000021
:020000040000fa
:04028400560300001d
:020000040000fa
:040288005603000019
:020000040000fa
:04028c005603000015
:020000040000fa
:040290005603000011
:020000040000fa
:04029400560300000d
:020000040000fa
:040298005603000009
:020000040000fa
:04029c005603000005
:020000040000fa
:0402a0005603000001
:020000040000fa
:0402a40056030000fd
:020000040000fa
:0402a80056030000f9
:020000040000fa
:0402ac0056030000f5
:020000040000fa
:0402b00056030000f1
:020000040000fa
:0402b40056030000ed
:020000040000fa
:0402b80056030000e9
:020000040000fa
:0402bc0056030000e5
:020000040000fa
:0402c00056030000e1
:020000040000fa
:0402c40056030000dd
:020000040000fa
:0402c80056030000d9
:020000040000fa
:0402cc0056030000d5
:020000040000fa
:0402d00056030000d1
:020000040000fa
:0402d40056030000cd
:020000040000fa
:0402d80056030000c9
:020000040000fa
:0402dc0056030000c5
:020000040000fa
:0402e00056030000c1
:020000040000fa
:0402e40056030000bd
:020000040000fa
:0402e80056030000b9
:020000040000fa
:0402ec0056030000b5
:020000040000fa
:0402f00056030000b1
:020000040000fa
:0402f40056030000ad
:020000040000fa
:0402f80056030000a9
:020000040000fa
:0402fc0056030000a5
:020000040000fa
:0403000056030000a0
:020000040000fa
:04030400560300009c
:020000040000fa
:040308005603000098
:020000040000fa
:04030c005603000094
:020000040000fa
:040310005603000090
:020000040000fa
:04031400560300008c
:020000040000fa
:040318005603000088
:020000040000fa
:04031c005603000084
:020000040000fa
:040320005603000080
:020000040000fa
:04032400560300007c
:020000040000fa
:040328005603000078
:020000040000fa
:04032c005603000074
:020000040000fa
:040330005603000070
:020000040000fa
:04033400560300006c
:020000040000fa
:040338005603000068
:020000040000fa
:04033c005603000064
:020000040000fa
:040340005603000060
:020000040000fa
:04034400560300005c
:020000040000fa
:040348005603000058
:020000040000fa
:04034c005603000054
:020000040000fa
:040350005603000050
:020000040000fa
:04035400560300004c
:020000040000fa
:040358005603000048
:020000040000fa
:04035c005603000044
:020000040000fa
:040360005603000040
:020000040000fa
:04036400560300003c
:020000040000fa
:040368005603000038
:020000040000fa
:04036c005603000034
:020000040000fa
:040370005603000030
:020000040000fa
:04037400560300002c
:020000040000fa
:040378005603000028
:020000040000fa
:04037c005603000024
:020000040000fa
:040380005603000020
:020000040000fa
:04038400560300001c
:020000040000fa
:040388005603000018
:020000040000fa
:04038c005603000014
:020000040000fa
:040390005603000010
:020000040000fa
:04039400560300000c
:020000040000fa
:040398005603000008
:020000040000fa
:04039c005603000004
:020000040000fa
:0403a0005603000000
:020000040000fa
:0403a40056030000fc
:020000040000fa
:0403a80056030000f8
:020000040000fa
:0403ac0056030000f4
:020000040000fa
:0403b00056030000f0
:020000040000fa
:0403b40056030000ec
:020000040000fa
:0403b80056030000e8
:020000040000fa
:0403bc0056030000e4
:020000040000fa
:0403c00056030000e0
:020000040000fa
:0403c40056030000dc
:020000040000fa
:0403c80056030000d8
:020000040000fa
:0403cc0056030000d4
:020000040000fa
:0403d00056030000d0
:020000040000fa
:0403d40056030000cc
:020000040000fa
:0403d80056030000c8
:020000040000fa
:0403dc0056030000c4
:020000040000fa
:0403e00056030000c0
:020000040000fa
:0403e40056030000bc
:020000040000fa
:0403e80056030000b8
:020000040000fa
:0403ec0056030000b4
:020000040000fa
:0403f00056030000b0
:020000040000fa
:0403f40056030000ac
:020000040000fa
:0403f80056030000a8
:020000040000fa
:0403fc0056030000a4
:020000040000fa
:10040000cf8020000e7f22000e0188000000000037
:10041000000020000000e000020032000001200087
:100420002002880014000700a20007000000e0007e
:1004300003003a0040632000010020000200370062
:100440000000200001002000810f70000100320038
:1004500014000700000020000000e000020032004d
:1004600000000200000000001e0602000000000064
:100470000040da000000fe004440a90020002000f7
:100480000000e000030032000020200090018800fe
:100490004440a800000006008a1f78008b1f7800e7
:1004a00000000600a1028800800478000000eb0034
:1004b0001f003700e284440054a0b4009905ba003c
:1004c000e284440054a0b4009906ba00e2844400d7
:1004d00054a0b4000006eb00476fde00fd07b20039
:1004e000ae018800636ce10003003a00eaff0700f8
:1004f0000000eb000e003700606ce10008003a00dd
:10050000004deb000a05e800020039003420ec0041
:100510000af0a0008b05e900f9ff3e000400370057
:100520006168e100010032000086eb000b0007006b
:1005300019c7ba001905ba000e04e00003003a001a
:100540000a00e000dbff3a0000000600fe07b200f0
:10055000ae0288008a047800f5ff37000cd0a300b3
:10056000e20f4d001c00390089027800354dba00b9
:100570000a05e800020039003420ec000af0a0006f
:100580008b05e9000f003200254dba000a05e8008e
:10059000020039003420ec000af0a0008b05e900cd
:1005a000080032000c00e0000600320015cdba0051
:1005b0000a05e800020039003420ec000af0a0002f
:1005c0008b05e9008984e80054a0b4000b00e0002a
:1005d000e2ff3a00000006009902ba00055d7800cb
:1005e0008b05e900f7ff3200c82ade00055d7800c0
:1005f0008b05e900f3ff32000c00e000f1ff320050
:1006000019ddba00eeff37003600f800809fbe000b
:10061000829fbe00849fbe00869fbe000200fa003b
:10062000b0158000004f780010c2b3009e407800e3
:1006300080cf500002003a00f60007001300370098
:10064000a0802000104078000081fb009e407800d0
:10065000008020000000410001487800a0802000b8
:10066000104078008040e800a08020000148780019
:10067000a080200010407800eb4f500003003600af
:10068000a08020008040eb00014878008f00a90086
:100690000080fa004f03be004f02be004f01be00b3
:1006a0004f00be003600f900004006000040da00ae
:0806b0000000fe00000005003f
:020000040000fa
:0406b800200000001e
:020000040000fa
:1006bc000000fa00e842a800e862a900ec62a80079
:1006cc008000200080158800b222ef00301020003e
:1006dc00c0158800113a8000f00b200000816000ea
:1006ec0060042000710520002374200080497800ec
:1006fc008149780082497800b135800000fc2f00d8
:10070c0000806000e001b300b035880081368000c5
:10071c0000fc2f0000806000e001b30080368800f0
:10072c00b1e2a800b342a8000080fa000000060065
:10073c000000fa00000000009015800061006000cd
:10074c000000e000fcff32009015800062006000a9
:10075c000000e00001003200b222a900b0158000b8
:10076c00004078000080fa00000006000200fa0049
:10077c00004f780000000000911580000020200040
:10078c00008060000000e000fbff3a001e80fb00d0
:10079c00a01588000080fa00000006000200fa0094
:1007ac00000f7800040037001e007800104078001d
:1007bc001e0fe800edff07001e00780010407800c7
:1007cc000004e000f8ff3a000080fa000000060088
:1007dc000400fa00100798001e009000c300de0011
:1007ec00500c22000008b8004408de00004f7800ce
:1007fc0001c3b3001ec04000dcff07009e80fb005d
:10080c0080c12f000088b900000078009e00900085
:10081c0000804000100798001e009000c200de000f
:10082c00b04721000008b8000100d100004f78004b
:10083c0001c3b3001ec04000ccff07009e80fb002c
:10084c00c0f92f000088b900000078009e009000cd
:10085c0000804000100798009e009000d0cc2c0027
:10086c000008b8004308de00004f780001c3b30055
:10087c001ec04000bdff07009e80fb0060ff2f00e4
:10088c000088b900000078009e00900000804000b5
:10089c00100798001e009000004078000043b00044
:1008ac00b2ff07000080fa00000006000400fa0006
:1008bc001007980000c3b300acff070080c7b3005b
:1008cc00aaff07001e0090004400de00004f7800d5
:1008dc001e40780009000700a4ff07001e009000ce
:1008ec00004078006f4f60001e4078000300070046
:1008fc009eff07000080fa00000006000200fa00cc
:10090c00004f78001e407800e94f500003003e0075
:10091c0001c3b3001ec040001e0037001e80fb0048
:10092c00ec0f500012003200ec0f500005003c00a0
:10093c00ea0f50000a003200eb0f50000a003200a0
:10094c0013003700ee0f50000d003200ee0f500078
:10095c0009003500ef0f50000b0032000c0037007f
:10096c0010c4b3000b00370020c4b30009003700db
:10097c0030c4b3000700370040c4b3000500370093
:10098c0050c4b3000300370060c4b300010037004b
:10099c0060c4b3000080fa00000006000600fa00f4
:1009ac0010079800414798000040eb00004f78007a
:1009bc000f0037001e80fb009e009000008040005e
:1009cc00104078000004e000080032001e80fb009c
:1009dc009e00900000804000104078000080fb00da
:1009ec00b2ff0700c03528006cff07001e4fe8005f
:1009fc004e4090009e40780080cf5000edff3900b3
:100a0c000080fa00000006000200fa000040eb0033
:100a1c00004f7800060037009e80fb00008020000d
:100a2c00008040001040780050ff07001e4fe80087
:100a3c00a0802000104078009e4f5000f6ff3e0032
:100a4c00a08020008040eb0001487800a0c0b300db
:100a5c0046ff07000080fa00000006000000fa00c4
:100a6c000500070012ff0700110007005d000700da
:100a7c000080fa00000006000000fa000001eb0004
:100a8c006004200071052000237420008049780048
:100a9c00814978008249780000102300203a8800b0
:100aac004827ef004e27ef000080fa0000000600f8
:100abc000000fa00cc22ef00d422ef00dc22ef0081
:100acc00e422ef00ec22ef00f422ef00f0ef2b0019
:100adc00401688000000290080168800f0ff2000d6
:100aec00c0168800f00f200000178800f0072000c7
:100afc0040178800c038200080178800e802a90041
:100b0c005620ef005820ef005a20ef005c20ef0039
:100b1c005e20ef006020ef006e20ef007020ef00f1
:100b2c007220ef007420ef007620ef007820ef00a9
:100b3c00ce22ef00d622ef00de22ef00e622ef00fd
:100b4c00ee22ef00f622ef00f0cc2b0010278800ed
:100b5c0000cc200030278800000f200040278800a0
:100b6c000030200060278800113a8000f00b200034
:100b7c0000816000600420007105200023742000b7
:100b8c00804978008149780082497800a13680003c
:100b9c00f00f2c00808060000050200001007000dd
:100bac00a03688003135800000fc2f0000806000ea
:100bbc00a001b30030358800103a800000017800a5
:100bcc000260a00060042000710520002374200046
:100bdc008049780081497800824978000080fa00c9
:100bec00000006000000fa009f00a8008f00a9007a
:080bfc000080fa000000060071
:020000040000fa
:100c0400f03fb1000180b10006003500ee03090099
:100c140000000000403fb1000180b100fbff3d0037
:100c24001000b000203fb000020035000080090031
:080c34000000000000000600b2
:020000040000fa
:100c3c000000fa0089ff0700ec02a80000d0220097
:100c4c0011132000ecff0700ec02a90000d02200d9
:0c0c5c0011132000e8ff0700f7ff37002d
:020000040000fa
:100c6800000800000c0000008000000000000000e8
:020000040000fa
:020000040001f9
:0457f000ffff0000b7
:020000040000fa
:020000040001f9
:0457f400fffe0000b4
:020000040000fa
:020000040001f9
:0457f800bee200000d
:020000040000fa
:020000040001f9
:0457fc009f3d0000cd
:00000001FF
